:020000020000FC
:020004007FD1AA
:020008007DD1A8
:02000C007BD1A6
:0200100079D1A4
:0200140077D1A2
:0200180075D1A0
:02001C0073D19E
:0200200071D19C
:020024006FD19A
:020028006DD198
:02002C006BD196
:0200300069D194
:0200340067D192
:0200380065D190
:02003C0063D18E
:0200400061D18C
:020044005FD18A
:020048005DD188
:02004C005BD186
:0200500059D184
:0200540057D182
:0200580055D180
:02005C0053D17E
:0200600051D17C
:020064004FD17A
:020068004DD178
:02006C004BD176
:0200700049D174
:0200740047D172
:0200780045D170
:02007C0043D16E
:0200800041D16C
:020084003FD16A
:020088003DD168
:02008C003BD166
:0200900039D164
:0200940037D162
:0200980035D160
:02009C0033D15E
:0200A00031D15C
:0200A4002FD15A
:0200A8002DD158
:0200AC002BD156
:0200B00029D154
:0200B40027D152
:0200B80025D150
:0200BC0023D14E
:0200C00021D14C
:0200C4001FD14A
:0200C8001DD148
:0200CC001BD146
:0200D00019D144
:0200D40017D142
:0200D80015D140
:0200DC0013D13E
:1000E00011D100200010FFFF39000A0041546D6556
:0600F00067613132383176
:040064000C947B007D
:1000F600AF93AFB7AF93BF93EF93FF93B091C600A3
:10010600A0910002E2E0F2E0EA0FF31DB083A395AE
:10011600AF70A0930002FF91EF91BF91AF91AFBF77
:10012600AF91189500F04BF140F000028AF020F0F4
:1001360006FF72782D697372000000F0BA0039F07C
:10014600A10040F00102A1F0BAF044F240F00F0025
:1001560028F240F0010296F040F00202B2F1A1F05E
:1001660020F007FF72783F2D697372009B0000F044
:100176002C0740F00102A1F040F00002A1F015F1B9
:1001860020F007FF74782D706F6C6C00B40000F0DF
:10019600D80039F0CB0040F0C60096F020F008FFFA
:1001A60074783F2D706F6C6CC40000F02C0740F023
:1001B600C000A1F040F0200028F220F004FF756294
:1001C6007272D20076F00C0065F349F306FF2B75C8
:1001D60073617274E10000F040F0980040F0C100D5
:1001E60096F040F0060040F0C20096F0E500BAF046
:1001F60020F340F0C50096F040F0C40096F095005C
:10020600200820F007FF31772E696E697400E90037
:100216000C010C9814989A938A9399270C9A14981F
:10022600E9E9F3E03197F1F700C00C98149AE1E898
:10023600F0E03197F1F780B184FF9FEFE3EFF2E052
:100246003197F1F700C0892F0C9404F009FF31773C
:100256002E777262797465000501310183E308E047
:100266008894879590F40C9A1498EBE0F0E0319717
:10027600F1F70C98149AE5E7F0E03197F1F700C032
:1002860000000A9571F70C9404F00C9A1498EEE6A7
:10029600F0E03197F1F700C00C98149AE2E1F0E033
:1002A6003197F1F700000A95E1F60C9404F009FF86
:1002B60031772E72646279746500290162019A931E
:1002C6008A9380E090E008E00C9A1498EBE0F0E066
:1002D6003197F1F70C98149AE0E1F0E03197F1F7D5
:1002E60000C020B1889424FD08948795E5E6F0E0E7
:0E02F6003197F1F700000A9539F70C9404F0E7
:040000000C94350720
:100304000A920FB60A920F900F900A940092140268
:1003140009900FBE09906894089505FF665F6370A5
:1003240075005A0100F040F0008040F0700020F0A9
:1003340005FF7374617465008F014EF0870204FF3A
:10034400626173659A0161F00C0005FF63656C6C72
:100354007300A10100F020F220F005FF63656C6CCE
:100364002B00A70100F044F244F220F003FF3E69A1
:100374006E00AF0161F0180004FF23746962B801D4
:100384004EF0890203FF70616400BE0100F00202B6
:1003940040F06400B2F120F004FF656D6974C4019B
:1003A4009D080E0075087C0805FF656D69743F00A3
:1003B400CE019D08100075087C0803FF6B65790069
:1003C400D6019D08120075087C0804FF6B65793F0F
:1003D400DF019D08140075087C0802FF6470E701C2
:1003E40076F0020065F349F303FF65647000EF01E2
:1003F40076F0060065F349F304FF68657265F6015B
:1004040076F0040065F349F305FF616C6C6F7400CA
:10041400FE0100F00202B2F15308030220F008FFCB
:100424002863726561746529060200F0A2062B0236
:10043400BAF001F11D0EF8F040F08D028AF040F0A0
:100444008B028AF020F007FF776C73636F7065008E
:1004540011029D0852006108660801005C00250233
:1004640000F08706CDF0E2F0BC018AF020F0010034
:1004740028002F0200F040F029005306E2F0E2F0D9
:1004840020F007FF636F6D70696C6500390200F03E
:10049400F8F0BAF044F201F1D7F3540220F001FF6E
:1004A4002C00430200F0F20179F3F20144F2530804
:1004B400F30120F003005B275D00510200F04902C4
:1004C40040F0E204540220F003FF62696E005C0213
:1004D40000F040F00200A5018AF020F007FF6465F7
:1004E40063696D616C00660200F040F00A00A501CA
:1004F4008AF020F003FF68657800700200F040F095
:100504001000A5018AF020F002FF626C7C024EF01C
:10051400200007FF7475726E6B65790086029D0872
:1005240008006108660805FF2A2F6D6F64008B02BE
:1005340000F001F1BBF1F8F0D7F120F004FF2F6DCA
:100544006F649502A5029C0109911991412F4327DB
:1005540017FF04C0109500950F5F1F4F37FF04C0AD
:10056400309520952F5F3F4FEE24FF1851E1001F77
:10057400111F5A9539F447FF04C0109500950F5F79
:100584001F4F0BC0EE1CFF1CE21AF30A20F4E20E0C
:10059400F31E8894ECCF0894EACFFA92EA92C80149
:1005A4000C9404F002FF2A2FA00200F09A02CDF06E
:1005B400E2F020F005FF752F6D6F6400D40200F0A7
:1005C40001F14BF1F8F0D7F120F006FF6E65676199
:1005D4007465DC0200F012F244F220F001FF2F00F7
:1005E400E70200F0A402CDF0E2F020F003FF6D6F0B
:1005F4006400F00200F0A402E2F020F003FF616264
:100604007300F80200F0BAF044F139F00A03EC0286
:1006140020F003FF6D696E00000300F0D8F0D8F0FD
:1006240039F139F01603CDF0E2F020F003FF6D61EB
:1006340078000B0300F0D8F0D8F02FF139F0230341
:10064400CDF0E2F020F006FF77697468696E180354
:1006540000F0D8F0A8F101F1A8F1F8F05DF120F074
:1006640007FF746F757070657200250300F0BAF0AF
:1006740040F0610040F07B002A0339F0440340F06D
:10068400DF0028F220F007FF746F6C6F776572004B
:10069400320300F0BAF040F0410040F05B002A035E
:1006A40039F0570340F0200031F220F003FF686C6A
:1006B400640045034EF08F0204FF686F6C645803B6
:1006C40000F05C03BAF082F04AF2BAF001F1CDF026
:1006D4008AF0F8F096F020F002FF3C235E0300F06D
:1006E400C8015C038AF020F001FF23006E0300F0D0
:1006F400A50182F0FA03EAF040F00900D8F02FF1E6
:1007040039F0870340F00700B2F140F03000B2F155
:10071400620320F002FF2373760300F07903D8F01C
:10072400D8F031F229F139F0900320F002FF233E92
:100734008C0300F0E2F0E2F05C0382F0BAF0C8014E
:10074400CDF0A8F120F004FF7369676E980300F000
:1007540044F139F0B00340F02D00620320F003FFB0
:10076400642E7200A50300F001F1CDF0D8F0420927
:1007740071038F03EAF0A9039B03F8F0D8F0A8F102
:10078400C404D30420F002FF2E72B10300F001F17F
:100794003BF3F8F0B50320F002FF642EC50300F02C
:1007A4004BF1B503BB0420F001FF2E00CE0300F093
:1007B4003BF3D10320F003FF75642E00D60300F051
:1007C4004BF1EA03BB0420F004FF75642E72DD03D1
:1007D40000F001F171038F039B03F8F0D8F0A8F146
:1007E400C404D30420F006FF75642F6D6F64E60320
:1007F40000F001F14BF10AF1D7F1F8F0CDF001F17D
:10080400D7F1F8F020F006FF64696769743FF503D7
:1008140000F0380340F03000A8F1BAF040F00900CD
:1008240068F139F0210440F00700A8F1BAF040F073
:100834000900300439F02104E2F04BF120F0BAF061
:10084400A50182F0380439F02A04E2F04BF120F0DB
:1008540054F120F003FF753C3D00050400F068F1FD
:1008640012F220F003FF753E3D002C0400F05DF110
:1008740012F220F00AFF28736C69746572616C29A6
:10088400340400F0F8F0BAF0BAF0D7F3CDF044F243
:10089400CDF0EAF0D8F044F219F2B2F144F201F1E9
:1008A40020F002FF732C3C0400F0BAF05A0420F04C
:1008B40000F05402BAF019F2CDF0D8F020F2A8F109
:1008C40001F14BF1B9F26C04BAF082F05402B401B4
:1008D400EAF26604F8F073F139F07304BAF0A1F0A7
:1008E4005402E2F020F005FF697479706500530446
:1008F40000F0BAF019F2CDF0D8F020F2A8F101F12D
:100904004BF1B9F28D04BAF0D7F3BAF09A04960415
:1009140044F2EAF28504F8F073F139F09404BAF081
:10092400D7F39A04E2F020F000F020F39A0420F0C8
:1009340000F040F0FF0028F2D20120F006FF6963C6
:100944006F756E74750400F0BAF044F2CDF0D7F30D
:1009540020F002FF6372A00400F040F00D00D20109
:1009640040F00A00D20120F005FF73706163650056
:10097400AB0400F08902D20120F006FF73706163BA
:100984006573B60400F0BAF073F128F24BF1B9F2D2
:10099400CE04BB04EAF2CB0420F004FF7479706542
:1009A400BF0400F0D8F0B2F1CDF0B9F2DE04CFF21A
:1009B400A1F0D201EAF2D90420F001FF2700CF040C
:1009C40000F0A206C00629F139F0EB0440F0F3FF71
:1009D4000F0520F007FF68616E646C657200DF0428
:1009E40061F00A0005FF636174636800EC0400F0C1
:1009F40096F201F1F20482F001F17FF2F2048AF03E
:100A04002AF0F8F0F2048AF0F8F0E2F04BF120F06A
:100A140005FF7468726F7700F40400F0BAF029F1EE
:100A240039F01605E2F020F0F20482F089F2F8F0D1
:100A3400F2048AF0F8F0CDF001F19FF2E2F0F8F060
:100A440020F005FF63736B6970000A0500F001F183
:100A5400BAF039F03805D8F0A1F00AF11FF139F0F5
:100A6400380540F0010091062FF02A05F8F0E2F075
:100A740020F006FF616363657074230500F0BAF02B
:100A840001F101F1E301BAF040F00A0015F139F087
:100A94007E05BAF040F00D0015F139F07E05BAF08C
:100AA40040F008001FF139F06A05F8F00AF1D8F0B7
:100AB40001F11FF139F06105E2F02FF04405BAF0BD
:100AC400D201BB04D2014AF2F8F044F22FF07805C7
:100AD400BAF089022FF139F07105E2F08902BAF017
:100AE400D201D8F096F044F2F8F04AF2BAF001F1EB
:100AF40029F139F04405BAF0E2F0E2F0F8F0F8F048
:100B0400CDF0A8F1AE0420F006FF726566696C6C46
:100B14003B059D081A0075087C0804FF6368617230
:100B2400860500F0A206E2F0A1F020F006FF6E7543
:100B34006D6265728F0500F0A50182F001F1100667
:100B440001F1DC051006F8F031F201F101F101F1D7
:100B54004BF14BF1F8F0F8F02F06C2F039F0CF0565
:100B640040F001001FF139F0C505A1F040F02E005E
:100B74001FF139F0C505F8F039F0C1054F0940F00F
:100B840002002FF0D705E2F0E2F0E2F0F8F0E2F034
:100B9400F8F0A5018AF04BF120F0E2F0E2F0F8F071
:100BA40039F0D505EC0240F00100F8F0A5018AF017
:100BB40054F120F000F0D8F0A1F040F0290039F110
:100BC40039F0E50520F0D8F0A1F0EC0540F0010083
:100BD400910620F000F0BAF040F024001FF139F043
:100BE400F605E2F0800220F0BAF040F025001FF193
:100BF40039F0FF05E2F06A0220F0BAF040F0260076
:100C04001FF139F00806E2F0760220F040F02300EC
:100C14001FF139F00F06760220F020F000F0D8F032
:100C2400A1F040F02B001FF139F01B0640F0010049
:100C34009106D8F0A1F040F02D001FF1BAF001F1B7
:100C440039F0270640F001009106F8F020F007FF84
:100C54003E6E756D62657200980500F0BAF039F069
:100C64004D06D8F0A1F00A0429F139F03A0620F033
:100C740001F18309F8F0CDF0A50182F0F5F1E2F07D
:100C8400EAF0A50182F0F5F1890C830940F0010036
:100C940091062FF0300620F005FF70617273650035
:100CA400290600F001F18706BC0182F09106F8F0F4
:100CB4006806BAF044F2BC016EF240F001009106FD
:100CC40020F005FF637363616E004E0600F0CDF003
:100CD400BAF001F14BF1B9F27F06D8F0CFF2B2F1DC
:100CE400A1F0D8F01FF139F07D06E2F0CFF2F9F26D
:100CF400F8F0E2F020F0EAF26F06E2F0F8F020F00B
:100D040006FF736F7572636563069D0816007508A8
:100D14007C0807FF2F737472696E6700820600F007
:100D2400D8F00F03EAF0D8F0B2F1EAF0EAF0A8F153
:100D340020F00AFF70617273652D6E616D658B061C
:100D440000F08902A60620F000F001F18706BC013C
:100D540082F091060AF12805F8F06806D8F0D8F078
:100D6400B2F18706E2F0A8F1BC018AF020F009FF95
:100D740066696E642D6E616D65009B0600F040F03F
:100D8400160065F34BF1B9F2DD06D8F0D8F040F067
:100D94001800CFF2AC01B2F165F3B108C2F039F03A
:100DA400DB0601F101F1E2F0E2F0F8F0F8F0F9F21B
:100DB40020F0EAF2C706E2F0E2F04BF120F004FF83
:100DC40071756974B90600F05D079FF26A0789F2CC
:100DD4009E0E9F0182F029F139F0F10607078B0579
:100DE40039F0EB0640F08307F904C2F039F0030749
:100DF400BAF040F0FEFF2FF139F0010715072FF08C
:100E0400E6060E072FF0EB0620F000F0AE044304D4
:100E140002003E207A0420F000F043040300206F17
:100E24006B007A0420F000F043040400203F3F20CC
:100E34007A04A50182F001F17602D903BC0182F0A3
:100E4400D903F8F0A5018AF020F005FF70617573ED
:100E54006500E1069D0891026B08700804FF636F4A
:100E64006C6427073507A4B6BB242224332424BE8C
:100E7400E3E9F2E02F010FEF0DBF048311E21EBF7F
:100E84001583CFEAC683D1E2D783A0E5B7E00C94FB
:100E940004F004FF7761726D300700F0D40940F06C
:100EA400200840F02C0788089102E50620F003FF93
:100EB400737030004B0776F00600A9F0B1F002FF22
:100EC4007370590761F0080003FF72703000610706
:100ED40000F06E0782F020F061F0040005FF646505
:100EE40070746800660700F05D0796F2A8F119F2C5
:100EF4004AF220F009FF696E7465727072657400BD
:100F0400700700F0A206C2F073F139F0A90740F0AF
:100F1400440065F34BF1B9F2A407D8F0D8F0CFF24E
:100F2400EAF0EAF001F101F1AC0140F04600B2F15F
:100F340065F32AF0F8F0F8F0EAF039F0A207FA0DB8
:100F4400EAF28F07E2F0E2F0F6072FF08407E2F00E
:100F540020F00AFF7265632D696E746E756D7C07EF
:100F640000F09D0539F0C7079F0182F039F0C407EE
:100F740040F002001FF139F0C107CDF0610D610DA1
:100F84002FF0C507E2F054F120F04BF120F008FFF8
:100F94007265632D66696E64AB0700F0C006BAF033
:100FA40039F0E20773F139F0D9072FF0E0079F0118
:100FB40082F039F0E00754022FF0E1072AF054F1EF
:100FC40020F00CFF7265632D6E6F74666F756E642E
:100FD400C90700F0D30440F0F3FF0F0520F006FF2B
:100FE4003F737461636BE30700F0750744F139F0F4
:100FF400FE0740F0FCFF0F0520F003FF766572004A
:10100400F10700F0550F7A04BB04A50182F001F149
:101014007602630F3BF37103790340F02E00620301
:101024008F039B03F8F0A5018AF0D304BB046B0F74
:101034007A0420F004FF6E6F6F70FF0721080C9490
:1010440004F006FF756E757365641C0800F05D0797
:101054000202A8F120F005FF76616C756500230893
:1010640000F01702370E490276F0FA01BAF0540282
:10107400BAF044F244F25308FB0149F3490265F320
:10108400490249F320F00200746F2D0800F0E204D5
:1010940044F29F0182F039F059084902530854027E
:1010A40020F000F0F8F0BAF044F201F1D7F3BAF00E
:1010B400D7F3CDF044F244F2D7F32AF020F000F055
:1010C40044F2D7F365F320F000F044F2D7F349F388
:1010D40020F000F044F2D7F382F020F000F044F264
:1010E400D7F38AF020F000F044F2D7F329F3B2F1F9
:1010F40082F020F000F044F2D7F329F3B2F18AF041
:1011040020F006FF646566657221450800F0BAF0B8
:1011140040F00300B2F1D7F32AF020F006FF646533
:1011240066657240830800F0BAF044F244F2D7F3E3
:101134002AF020F09D080E945B0EBAF04AF2CDF02E
:1011440044F2D7F32AF02AF020F00FFF736561729E
:1011540063682D776F72646C69737400900800F093
:1011640065F3BAF029F139F0BC08E2F0E2F0E2F0FC
:101174004BF120F001F1D8F0D8F00AF1A50440F0C9
:10118400FF0028F2E20839F0D708E2F0E2F0F8F0C4
:10119400BAF0D7F301F1F80F44F240F00100F8F08F
:1011A40044F139F0D608EC0220F0F8F0F80FD7F348
:1011B4002FF0B30808FF69636F6D70617265A7084B
:1011C40000F001F1D8F0F8F015F139F0EE08E2F092
:1011D400E2F0E2F04BF120F0CDF04BF1B9F212095C
:1011E400D8F082F01709D8F0D7F31709BAF040F015
:1011F40000012FF139F00209CDF040F0FF0028F290
:1012040015F139F00A09E2F0E2F04BF1F9F220F0BD
:1012140044F2CDF0B401CDF040F00200D0F2F20877
:10122400E2F0E2F040F0FFFF20F000F0BAF040F00E
:10123400FF0028F24B03CDF020F340F0FF0028F22A
:101244004B0320F331F220F001FF2A00DC0800F008
:10125400BBF13B0920F001FF6A00260900F07FF290
:1012640040F00900B2F182F020F003FF643E730005
:101274002D0900F0E2F020F004FF64616273370985
:1012840000F0BAF044F139F048094F0920F007FFA3
:10129400646E6567617465003E0900F0B10C40F04E
:1012A40001004BF1890C20F005FF636D6F7665003A
:1012B40049095C09BF93AF93E991F991A991B99157
:1012C400092F082B21F01D9111930197E1F7AF919C
:1012D400BF91899199910C9404F003FF64322F001B
:1012E400560974090991199195958795179507954C
:1012F4001A930A930C9404F005FF3273776170001B
:101304006F0900F0EAF001F1EAF0F8F020F003FFD1
:10131400746962007E094EF0B9020AFF726566695B
:101324006C6C2D746962890900F08D0940F06400C9
:101334004005C2018AF04BF1BC018AF040F0FFFF86
:1013440020F00AFF736F757263652D7469628F09EB
:1013540000F08D09C20182F020F007FF65652D754C
:1013640073657200A3094EF0280006FF65653E729E
:10137400616DAF0900F04BF1B9F2CA09D8F065F319
:10138400D8F08AF0B401CDF0B401CDF0EAF2C0098E
:10139400E2F0E2F020F009FF696E69742D7573655F
:1013A4007200B70900F0B50929F340F01C0019F2E6
:1013B400BC0920F003FF316D7300CD09E109E3E3BB
:1013C400F7E03197F1F70C9404F00800326C69747B
:1013D4006572616CDC0900F0CDF0490240F0540202
:1013E400490240F0540220F003FF32723E00E70944
:1013F400FB099A938A938F919F919A938A938F91E1
:101404009F910C9404F006FF632140737069F60900
:101414000B0A03D099270C9404F08EBD0DB5087FF8
:101424000DBD0DB507FFFACF8EB5089505FF214018
:1014340073706900050A1E0A8F93892FEEDF982FB7
:101444008F91EBDF0C9404F003FF323E7200180A14
:101454002B0A9F938F93899199919F938F9389914D
:1014640099910C9404F008FF626D2D636C656172B0
:10147400260A3C0AFC0189919991809500810823F0
:101484000083899199910C9404F006FF626D2D7389
:101494006574350A4D0AFC01899199910081082BE4
:1014A4000083899199910C9404F009FF626D2D7465
:1014B4006F67676C6500470A5F0AFC01899199911F
:1014C400008108270083899199910C9404F0090004
:1014D4005B636F6D70696C655D00570A00F04902CB
:1014E4004902E204540220F005FF6275696C74003D
:1014F400690A00F043040B0041756720313620323D
:10150400303134007A04BB044304080031383A33E0
:10151400323A34377A0420F005FF636F756E740035
:10152400760A00F0BAF044F2CDF0A1F020F002FF08
:10153400643D8E0A9D0A29913991E990F990499167
:1015440059918E159F052407350711F00C944EF11F
:101554000C9457F1AD0A9A938A93FD015527EE0F27
:10156400FF1F551F5BBF07911791FD01319655274A
:10157400EE0FFF1F551F5BBF879197919A938A9334
:10158400C80112960C9404F004FF66696C6C990A05
:1015940000F0EAF0EAF04BF1B9F2D60AD8F0D8F04C
:1015A40096F044F2EAF2D00AE2F0E2F020F004FF0E
:1015B40066696E64C60A00F0BAF0930AC006BAF00F
:1015C40039F0E60AEAF0E2F020F00EFF6765742DC8
:1015D4007265636F676E697A6572D90A00F040F0CC
:1015E4004400870F20F004FF23696E74E70A4EF06D
:1015F400390002FF6D73F50A00F04BF1B9F2050BE7
:10160400E009EAF2020B20F003FF6E723E00FB0ACF
:101614000B0B9A938A93FF91EF910E2F8F919F91C9
:101624009A938A930A95D1F7CF010C9404F003FF9F
:101634006E3E7200060B1E0BFC01082F89919991D6
:101644009F938F930A95D1F7EF93FF938991999183
:101654000C9404F003FF6E697000190B310B229691
:101664000C9404F005FF2D6A746167002C0B3A0B8F
:10167400F89405B7006805BF05BF78940C9404F08E
:1016840003FF303C3E00340B00F029F129F120F037
:1016940004FF7069636B420B4F0BFE01880F991FA7
:1016A400E80FF91F808191810C9404F005FF706CA0
:1016B400616365004A0B00F0D8F0D8F096F044F26C
:1016C400CDF006F320F006FF706F70636E74580B54
:1016D4006B0BFC01882705D0EF2F03D099270C94BE
:1016E40004F098E0E795831D9A95E1F7089502FFC9
:1016F4006140650B7D0B9A938A93F30181919191DB
:101704000C9404F003FF6E614000790B890BF30124
:10171400E80FF91F819191910C9404F003FF61404B
:101724002B00840B950B9A938A93F30181919191E9
:101734003F010C9404F003FF61402D00900BA20BB9
:101744009A938A93F301929182913F010C9404F04D
:1017540002FF61219D0BAE0BF3018193919389915B
:1017640099910C9404F003FF6E612100AA0BBA0B4B
:10177400F301E80FF91F89919991819391938991CC
:1017840099910C9404F003FF61212B00B50BCA0B53
:10179400F30181939193899199913F010C9404F001
:1017A40003FF61212D00C50BD70BF30192938293A4
:1017B400899199913F010C9404F002FF3E61D20B90
:1017C400E30B3C01899199910C9404F002FF613E72
:1017D400DF0BEC0B9A938A93C3010C9404F002FF81
:1017E4006240E80BF50B9A938A93F40181919191ED
:1017F4000C9404F003FF6E624000F10B010CF40141
:10180400E80FF91F819191910C9404F003FF624059
:101814002B00FC0B0D0C9A938A93F4018191919106
:101824004F010C9404F003FF62402D00080C1A0CC5
:101834009A938A93F401929182914F010C9404F04B
:1018440002FF6221150C260CF40181939193899176
:1018540099910C9404F003FF6E622100220C320C67
:10186400F401E80FF91F89919991819391938991DA
:1018740099910C9404F003FF62212B002D0C420C6F
:10188400F40181939193899199914F010C9404F0FF
:1018940003FF62212D003D0C4F0CF40192938293BF
:1018A400899199914F010C9404F002FF3E624A0C15
:1018B4005B0C4C01899199910C9404F002FF623EF7
:1018C400570C640C9A938A93C4010C9404F00EFF91
:1018D4007365742D7265636F676E697A6572600CE7
:1018E40000F040F04400A10F20F003FF64322A000E
:1018F400690C7C0C09911991000F111F881F991F05
:101904001A930A930C9404F002FF642B770C8A0C4C
:1019140029913991E990F99049915991240F351FF2
:101924008E1D9F1D3A932A930C9404F002FF642D9C
:10193400860C9C0C29913991E990F990499159911F
:10194400421B530BE80AF90A5A934A93C7010C94B1
:1019540004F007FF64696E7665727400980CB20C2B
:101964000991199180959095009510951A930A9371
:101974000C9404F002FF752EAB0C00F04BF1E10364
:1019840020F002FF2E73BC0C00F05D0796F2B40148
:10199400B9F2D30CCFF282F0BF0C40F00200D0F2C7
:1019A400CC0C20F003FF752E7200C30C00F04BF139
:1019B400CDF0EA0320F004FF75302E72D40C00F051
:1019C40001F14BF17103F8F04BF1B9F2EC0C79032E
:1019D400EAF2E90C9B03D30420F002002E22DD0C72
:1019E40000F0FA0C49027A0420F002007322EF0C92
:1019F40000F040F0220053069F0182F039F0050DFB
:101A040049024304560420F003FF77647200F70C84
:101A14000B0DA8950C9404F005FF776F72647300A6
:101A2400060D00F040F0180065F30A1020F004FFE2
:101A3400776F72640E0D00F0A60602025D0B0202BF
:101A440020F006FF456465666572190D00F0170203
:101A5400370E49029D08FA01BAF05402490261089E
:101A640049026608B4015308FB0120F006FF5264E2
:101A740065666572230D00F01702370E49029D0852
:101A84000202540240F002000B0249026B084902B0
:101A9400700820F002006973380D00F09F0182F095
:101AA40039F0580D60024902880820F0E2048808E1
:101AB40020F007006C69746572616C004C0D00F0D5
:101AC400490240F0540220F00800736C6974657296
:101AD400616C5B0D00F049024304560420F000F0F1
:101AE400F2014902FFFF20F000F0F607F201CDF009
:101AF40079F320F000F0F20120F000F0F607540230
:101B040020F00500616865616400660D00F049021B
:101B14002FF0710D20F002006966830D00F0490278
:101B240039F0710D20F00400656C73658D0D00F0C3
:101B340049022FF0710DCDF0760D20F00400746889
:101B4400656E950D00F0760D20F0050062656769FD
:101B54006E00A00D00F07C0D20F005007768696C24
:101B64006500A70D00F0490239F0710DCDF020F0A9
:101B74000600726570656174AF0D00F0D20D760DCC
:101B840020F00500756E74696C00BA0D00F049020E
:101B940039F07F0D20F00500616761696E00C30DA7
:101BA40000F049022FF07F0D20F00200646FCD0D8C
:101BB40000F04902A4F2710D7C0D20F004006C6F5A
:101BC4006F70D70D00F04902EAF27F0D760D20F018
:101BD40005002B6C6F6F7000E00D00F04902D0F22D
:101BE4007F0D760D20F005FF6C6561766500EA0DCA
:101BF400FB0D0F911F910F911F91AF91BF910C9409
:101C040004F003003F646F00F50D00F04902B9F2DF
:101C1400710D7C0D20F006FF637265617465030E1F
:101C240000F01702370E49025BF020F006FF6865EA
:101C3400616465720D0E00F0F20101F101F1BAF078
:101C440073F139F02F0EBAF040F000FF31F25A046C
:101C5400F8F065F35402F8F020F040F0F0FF0F05BF
:101C640006FF72657665616C180E00F040F08B0219
:101C740082F0C2F039F0460E40F08D0282F049F352
:101C84004BF140F08B028AF020F006FF6C61746522
:101C94007374320E4EF01D030500646F65733E00CD
:101CA400470E00F04902660E49020E9449025B0E8B
:101CB40020F09A938A93CB0101967F916F91BF9301
:101CC400AF93DB010C9404F000F0F8F0B90F65F366
:101CD400F80F44F279F320F001FF3A004E0E00F0C1
:101CE4001702F2014C0E8AF0490200F0950E20F022
:101CF40007FF3A6E6F6E616D65006E0E00F0F201C3
:101D0400BAF04C0E8AF0490200F0950E20F0010062
:101D14003B007A0E00F0490220F09E0E370E20F0B0
:101D240001FF5D00890E00F040F001009F018AF080
:101D340020F001005B00920E00F04BF19F018AF04D
:101D440020F008FF7661726961626C659B0E00F099
:101D54000202B60E40F002000B0220F008FF636F8F
:101D64006E7374616E74A30E00F01702370E49028D
:101D74004EF0540220F004FF75736572B00E00F04B
:101D84001702370E490261F0540220F00700726511
:101D9400637572736500BD0E00F04C0E82F0540240
:101DA40020F009FF696D6D65646961746500C80E92
:101DB40000F0B90F65F3BAF0D7F340F0FF7F28F2D3
:101DC400CDF079F320F006005B636861725DD30E99
:101DD40000F0490240F09305540220F006006162CD
:101DE4006F727422E50E00F0490239F0F2014902E3
:101DF400FFFFF20C490240F04902FEFF49020F05C1
:101E0400F201CDF079F320F005FF61626F72740086
:101E1400F00E00F040F0FFFF0F0504FF636F6465F0
:101E2400060F00F01702370EF20144F2540220F0BC
:101E340008FF656E642D636F64650F0F00F049023F
:101E44000C94490204F020F00BFF656E7669726F02
:101E54006E6D656E74001A0F4EF00E0009FF776FF9
:101E640072646C6973747300000000F040F0080041
:101E740020F004FF2F706164300F00F096F2C80167
:101E8400A8F120F005FF2F686F6C64003B0F00F091
:101E9400C8010202A8F120F00AFF666F7274682D6F
:101EA4006E616D65440F00F043040700616D666F59
:101EB4007274680020F007FF76657273696F6E00B4
:101EC4004E0F00F040F0330020F003FF6370750004
:101ED4005D0F00F040F07500A50420F008FF6D636D
:101EE400752D696E666F670F00F040F0710020F089
:101EF40005FF2F7573657200700F00F040F0260027
:101F040020F004FF40655B5D260F00F0BAF065F336
:101F140001F10AF14BF1CDF0B9F2990FCFF2AC0116
:101F2400D8F0B2F165F3CDF054F1D0F2900FE2F0B5
:101F3400E2F0F8F020F004FF21655B5D830F00F010
:101F4400D8F0D8F049F3CDF04BF1B9F2AF0FB401AA
:101F5400CDF0D8F049F3EAF2A90FE2F020F00BFF3C
:101F64006765742D63757272656E74009D0F00F061
:101F740040F0120065F320F009FF6765742D6F725D
:101F840064657200B10F00F040F01600870F20F076
:101F940007FF636F6D7061726500BE0FD10FBF9351
:101FA400AF938C0189919991DC01899199919C015C
:101FB40089919991FC01ED90F190EF1451F40A95F7
:101FC40019F02A95C1F701C02A95022B11F488272C
:101FD40002C08FEF00C0982FAF91BF910C9404F012
:101FE40007FF6E66613E6C666100CA0F00F0A504CF
:101FF40040F0FF0028F244F219F2B2F120F00DFF94
:1020040073686F772D776F72646C69737400F20F65
:1020140000F065F3C2F039F01A10BAF0A50440F0EC
:10202400FF0028F27A04BB04F80FD7F32FF00C104A
:1020340020F004FF2B696E740110201078940C9426
:1020440004F004FF2D696E741B102810F8940C948E
:1020540004F004FF696E7421231000F040F01502AF
:10206400B2F18AF020F004FF696E74402B1000F086
:1020740040F01502B2F182F020F008FF696E742D71
:10208400747261703510461080931402899199918D
:1020940068940C9404F000F040F01402A1F040F0B5
:1020A4001502B2F182F02AF05E1020F007FF697386
:1020B400722D656E64003F105F1002D00C9404F022
:1020C40018950BFF6170706C7475726E6B65790096
:1020D400581000F0EE001F10030820F001FF3F002D
:1020E400631000F082F0D90320F00BFF7365742DA8
:1020F40063757272656E7400701000F040F0120027
:1021040049F320F008FF70726576696F7573771074
:1021140000F0C50FCDF0E2F04AF2BAF029F139F03F
:10212400961040F0CEFF0F05F31020F00BFF64650E
:1021340066696E6974696F6E7300841000F0C50F70
:10214400D8F07F104BF1B9F2AA10E2F0EAF2A7102E
:1021540020F008FF776F72646C697374981000F054
:10216400FA014BF1D8F049F3BAF044F244F25308BF
:10217400FB0120F004FF6F6E6C79AB1000F040F0AF
:10218400140040F00100F31020F005FF666F727434
:102194006800BC1000F0C50FCDF0E2F0DD10CDF00A
:1021A400F31020F00EFF666F7274682D776F7264FF
:1021B4006C697374C71076F0100065F349F304FF7B
:1021C400616C736FD41000F0C50FD8F0CDF044F2F9
:1021D400F31020F009FF7365742D6F72646572004B
:1021E400E11000F040F01600A10F20F005FF6F721F
:1021F40064657200EC1000F0B90FBF0CAE04C50F9B
:10220400BAF0BF0C4BF1B9F20B11BF0CBB04EAF2EC
:04221400071120F09E
:020000021000EC
:10E00000BF93AF93DB0111969EF0FD015527EE0FF4
:10E01000FF1F551F5BBF679177911196FB01552735
:10E02000EE0FFF1F551F5BBF07911791F801099471
:10E03000E8946DE470E1F2CF04FF65786974F8103C
:10E0400021F0AF91BF91E0CF07FF657865637574EC
:10E0500065001CF02BF0BC0189919991DFCF30F065
:10E06000FD015527EE0FFF1F551F5BBFA791B7910D
:10E07000CBCF3AF0982B8991999191F31196C4CF17
:10E0800041F09A938A93FD015527EE0FFF1F551F0C
:10E090005BBF879197911196B7CF4EF09A938A9371
:10E0A000FB0131965527EE0FFF1F551F5BBF879170
:10E0B0009791AACF5BF09A938A93CB010196A4CF54
:10E0C00061F09A938A93FB0131965527EE0FFF1F5B
:10E0D000551F5BBF87919791840D951D95CF07FFC5
:10E0E0002876616C7565290024F076F00E945B0E3D
:10E0F000BAF0D7F3CDF044F2D7F32AF020F001FFC5
:10E1000040006FF083F0FC01819191917DCF01FF80
:10E1100021007FF08BF0FC0189919991918380839C
:10E120008991999171CF02FF632187F097F0FC01EB
:10E130008991999180838991999166CF02FF63407B
:10E1400093F0A2F0FC01992780815ECF02FF407519
:10E150009EF000F029F3B2F182F020F002FF217569
:10E16000A6F000F029F3B2F18AF020F003FF647505
:10E170007000AEF0BBF09A938A9346CF04FF3F64E1
:10E180007570B6F0C3F0082F092B11F09A938A939B
:10E190003BCF04FF73776170BEF0CEF08C018991A4
:10E1A00099911A930A9330CF04FF6F766572C9F084
:10E1B000D9F09A938A938A819B8126CF04FF647257
:10E1C0006F70D4F0E3F0899199911ECF03FF726FC5
:10E1D0007400DEF0EBF08C012991399189919991CD
:10E1E0003A932A931A930A930FCF02FF723EE6F0F6
:10E1F000F9F09A938A938F919F9106CF02FF3E7216
:10E20000F5F002F19F938F9389919991FDCE02FFD2
:10E210007240FEF00BF19A938A938F919F919F9396
:10E220008F93F2CE02FF3C3E07F116F1299139910E
:10E230008217930799F13BC001FF3D0012F120F1D5
:10E24000299139918217930749F531C002FF303D7A
:10E250001CF12AF1982BF8CF01FF3C0026F130F198
:10E260002991399128173907CCF421C001FF3E00CC
:10E270002CF13AF129913991281739077CF071F086
:10E2800016C002FF303C36F145F182159305ECCF04
:10E2900001FF300041F14CF19A938A93C101B4CE51
:10E2A00004FF7472756548F155F19A938A938FEF64
:10E2B0009FEFAACE02FF753C50F15EF12991399192
:10E2C0008217930758F351F3F2CF02FF753E5AF1CC
:10E2D00069F1299139912817390700F3F9F2E7CF4D
:10E2E00002FF303E65F174F182159305C7CF02FF3E
:10E2F000643E70F17BF10991199129913991E9906E
:10E30000F990E016F10628073907B8CF02FF643C00
:10E3100077F18AF10991199129913991E990F99050
:10E32000E016F106280739079FCF04FF6C6F6732AC
:10E3300086F19AF1FC01992780E18A9522F0EE0F8F
:10E34000FF1FD8F761CE9A955FCE01FF2D0095F1A2
:10E35000A9F109911991081B190BC80155CE01FFAC
:10E360002B00A5F1B3F109911991800F911F4CCEAB
:10E3700002FF6D2AAFF1BCF18C01899199919C014A
:10E3800031027001209FC0013003F308900DE11CA1
:10E39000F31C1203F308900DE11CF31C9A938A936B
:10E3A000C70132CE06FF756D2F6D6F64B8F1D8F1DD
:10E3B0007C01299139910991199140E15527000F6C
:10E3C000111F221F331F551F2E153F05520518F030
:10E3D00003952E193F094A9589F73A932A93C80164
:10E3E00013CE03FF756D2A00D2F1F6F18C018991ED
:10E3F0009991809FF00122273327909FF00D211DD6
:10E40000331D819FF00D211D331D919F200D311D66
:10E41000CF019A938A93C901F7CD06FF696E76659D
:10E420007274F1F113F280959095EECD02FF322FC8
:10E430000DF21AF295958795E7CD02FF322A16F272
:10E4400021F2880F991FE0CD03FF616E64001DF279
:10E4500029F20991199180239123D6CD02FF6F7281
:10E4600024F232F209911991802B912BCDCD03FF2B
:10E47000786F72002EF23CF2099119918027912752
:10E48000C3CD02FF312B37F245F20196BDCD02FF1D
:10E49000312D41F24BF20197B7CD06FF6C736869DD
:10E4A000667447F253F2FC018991999131971AF001
:10E4B000880F991FFBCFA8CD06FF72736869667439
:10E4C0004DF262F2FC018991999131971AF096957B
:10E4D0008795FBCF99CD02FF2B215CF26FF2FC01F7
:10E4E0008991999120813181820F931F808391833B
:10E4F0008991999189CD03FF727040006BF280F28F
:10E500009A938A938DB79EB77FCD03FF72702100D7
:10E510007BF28AF22FB7F8948DBF9EBF2FBF8991EF
:10E52000999172CD03FF7370400085F297F29A9330
:10E530008A93CE0169CD03FF7370210092F2A0F29D
:10E54000EC018991999160CDA5F2FD015527EE0F5F
:10E55000FF1F551F5BBF07911791119629913991A4
:10E560001F930F933F932F939F938F93899199912B
:10E570004BCDBAF2FD015527EE0FFF1F551F5BBFB4
:10E58000079117911196299139918217930741F7B5
:10E59000D8018991999138CD01FF69009BF20BF167
:10E5A000D1F2EF91FF91E80FF91F192F89919991FD
:10E5B0002F913F91E217F30717FF02C03CF001C013
:10E5C0002CF43F932F93FF93EF934ACD0F911F911C
:10E5D00011961ACDEBF2EF91FF9131962F913F9169
:10E5E000E217F30799F3EDCF06FF756E6C6F6F704E
:10E5F000CCF2FAF21F910F911F910F911F910F9181
:10E6000003CD06FF636D6F76653EF4F207F3BF93AB
:10E61000AF93E991F991A991B991092F082B41F094
:10E62000E80FF91FA80FB91F1E9112930197E1F788
:10E63000AF91BF9189919991E7CC02FF3E3C01F3E4
:10E6400021F3092F982F802FDFCC03FF7570400036
:10E650001DF32AF39A938A93C201D6CC03FF7570F7
:10E66000210025F333F32C0189919991CDCC03FF3F
:10E67000733E64002EF300F0BAF044F120F003FF83
:10E680006E6F740037F300F029F120F002FF21656E
:10E690003FF34AF3FC01899199912FB7F89407D081
:10E6A0003196892F04D02FBF89919991ADCCF999DA
:10E6B000FECF07B700FDFDCFF2BDE1BD80BDFA9AE8
:10E6C000F99A089502FF406546F366F32FB7F89470
:10E6D000FC0106D080B5319603D090B52FBF94CC05
:10E6E000F999FECFF2BDE1BDF89A089502FF2169C4
:10E6F00062F39D080A006108660809FF2821692D58
:10E700006E727777290076F385F31FB71F93F8941D
:10E710009C0189919991AF93BF93CF93DF9309D0D7
:10E72000DF91CF91BF91AF91899199911F911FBFB7
:10E730006BCC10D0E094F0948E219F21982B19F08F
:10E74000F90102E023D0F90104E020D0F90100E151
:10E750001DD00895F901E078FF7FEF01A0E8B0E057
:10E76000FE015527EE0FFF1F551F5BBF47915791C5
:10E77000FE01E217F30711F00A0102C07A010C0151
:10E78000002704D02196119759F70895F999FECFE3
:10E7900017B710FDFDCF5527EE0FFF1F551F5BBFAD
:10E7A000016007BFE895089502FF40697DF3D8F343
:10E7B000FC015527EE0FFF1F551F5BBF87919791F7
:02E7C00023CC68
:00000001FF
